{
  "_format": "hh-sol-artifact-1",
  "contractName": "EventTracking",
  "sourceName": "contracts/EventTracking.sol",
  "abi": [
    {
      "anonymous": false,
      "inputs": [
        {
          "indexed": true,
          "internalType": "address",
          "name": "user",
          "type": "address"
        },
        {
          "indexed": false,
          "internalType": "enum EventTracking.EventType",
          "name": "eventType",
          "type": "uint8"
        }
      ],
      "name": "EventLogged",
      "type": "event"
    },
    {
      "inputs": [],
      "name": "logAdViewed",
      "outputs": [],
      "stateMutability": "nonpayable",
      "type": "function"
    },
    {
      "inputs": [],
      "name": "logAffiliateLinkClaimed",
      "outputs": [],
      "stateMutability": "nonpayable",
      "type": "function"
    },
    {
      "inputs": [],
      "name": "logPartyAttended",
      "outputs": [],
      "stateMutability": "nonpayable",
      "type": "function"
    }
  ],
  "bytecode": "0x608060405234801561001057600080fd5b5061021f806100206000396000f3fe608060405234801561001057600080fd5b50600436106100415760003560e01c80632c0c028c1461004657806359c4302b14610050578063c471dd9e1461005a575b600080fd5b61004e610064565b005b6100586100b5565b005b610062610106565b005b3373ffffffffffffffffffffffffffffffffffffffff167f07e0b2ec000fbc04cc9cf069af2934ae34f81e2a96a66fabd02003780c8360f360016040516100ab91906101ce565b60405180910390a2565b3373ffffffffffffffffffffffffffffffffffffffff167f07e0b2ec000fbc04cc9cf069af2934ae34f81e2a96a66fabd02003780c8360f360026040516100fc91906101ce565b60405180910390a2565b3373ffffffffffffffffffffffffffffffffffffffff167f07e0b2ec000fbc04cc9cf069af2934ae34f81e2a96a66fabd02003780c8360f3600060405161014d91906101ce565b60405180910390a2565b7f4e487b7100000000000000000000000000000000000000000000000000000000600052602160045260246000fd5b6003811061019757610196610157565b5b50565b60008190506101a882610186565b919050565b60006101b88261019a565b9050919050565b6101c8816101ad565b82525050565b60006020820190506101e360008301846101bf565b9291505056fea26469706673582212209ede51bf0982110d6cdcd464d38c08b444b9e9a32ccaf2acde7fc4c84daf35d064736f6c63430008180033",
  "linkReferences": {},
  "deployedLinkReferences": {}
}