{"contracts/EventTracking.sol":{"EventTracking":{"abi":[{"anonymous":false,"inputs":[{"indexed":true,"internalType":"address","name":"user","type":"address"},{"indexed":false,"internalType":"enum EventTracking.EventType","name":"eventType","type":"uint8"}],"name":"EventLogged","type":"event"},{"inputs":[],"name":"logAdViewed","outputs":[],"stateMutability":"nonpayable","type":"function"},{"inputs":[],"name":"logAffiliateLinkClaimed","outputs":[],"stateMutability":"nonpayable","type":"function"},{"inputs":[],"name":"logPartyAttended","outputs":[],"stateMutability":"nonpayable","type":"function"}],"evm":{"bytecode":{"linkReferences":{},"object":"608060405234801561001057600080fd5b5061021f806100206000396000f3fe608060405234801561001057600080fd5b50600436106100415760003560e01c80632c0c028c1461004657806359c4302b14610050578063c471dd9e1461005a575b600080fd5b61004e610064565b005b6100586100b5565b005b610062610106565b005b3373ffffffffffffffffffffffffffffffffffffffff167f07e0b2ec000fbc04cc9cf069af2934ae34f81e2a96a66fabd02003780c8360f360016040516100ab91906101ce565b60405180910390a2565b3373ffffffffffffffffffffffffffffffffffffffff167f07e0b2ec000fbc04cc9cf069af2934ae34f81e2a96a66fabd02003780c8360f360026040516100fc91906101ce565b60405180910390a2565b3373ffffffffffffffffffffffffffffffffffffffff167f07e0b2ec000fbc04cc9cf069af2934ae34f81e2a96a66fabd02003780c8360f3600060405161014d91906101ce565b60405180910390a2565b7f4e487b7100000000000000000000000000000000000000000000000000000000600052602160045260246000fd5b6003811061019757610196610157565b5b50565b60008190506101a882610186565b919050565b60006101b88261019a565b9050919050565b6101c8816101ad565b82525050565b60006020820190506101e360008301846101bf565b9291505056fea26469706673582212209ede51bf0982110d6cdcd464d38c08b444b9e9a32ccaf2acde7fc4c84daf35d064736f6c63430008180033","opcodes":"PUSH1 0x80 PUSH1 0x40 MSTORE CALLVALUE DUP1 ISZERO PUSH2 0x10 JUMPI PUSH1 0x0 DUP1 REVERT JUMPDEST POP PUSH2 0x21F DUP1 PUSH2 0x20 PUSH1 0x0 CODECOPY PUSH1 0x0 RETURN INVALID PUSH1 0x80 PUSH1 0x40 MSTORE CALLVALUE DUP1 ISZERO PUSH2 0x10 JUMPI PUSH1 0x0 DUP1 REVERT JUMPDEST POP PUSH1 0x4 CALLDATASIZE LT PUSH2 0x41 JUMPI PUSH1 0x0 CALLDATALOAD PUSH1 0xE0 SHR DUP1 PUSH4 0x2C0C028C EQ PUSH2 0x46 JUMPI DUP1 PUSH4 0x59C4302B EQ PUSH2 0x50 JUMPI DUP1 PUSH4 0xC471DD9E EQ PUSH2 0x5A JUMPI JUMPDEST PUSH1 0x0 DUP1 REVERT JUMPDEST PUSH2 0x4E PUSH2 0x64 JUMP JUMPDEST STOP JUMPDEST PUSH2 0x58 PUSH2 0xB5 JUMP JUMPDEST STOP JUMPDEST PUSH2 0x62 PUSH2 0x106 JUMP JUMPDEST STOP JUMPDEST CALLER PUSH20 0xFFFFFFFFFFFFFFFFFFFFFFFFFFFFFFFFFFFFFFFF AND PUSH32 0x7E0B2EC000FBC04CC9CF069AF2934AE34F81E2A96A66FABD02003780C8360F3 PUSH1 0x1 PUSH1 0x40 MLOAD PUSH2 0xAB SWAP2 SWAP1 PUSH2 0x1CE JUMP JUMPDEST PUSH1 0x40 MLOAD DUP1 SWAP2 SUB SWAP1 LOG2 JUMP JUMPDEST CALLER PUSH20 0xFFFFFFFFFFFFFFFFFFFFFFFFFFFFFFFFFFFFFFFF AND PUSH32 0x7E0B2EC000FBC04CC9CF069AF2934AE34F81E2A96A66FABD02003780C8360F3 PUSH1 0x2 PUSH1 0x40 MLOAD PUSH2 0xFC SWAP2 SWAP1 PUSH2 0x1CE JUMP JUMPDEST PUSH1 0x40 MLOAD DUP1 SWAP2 SUB SWAP1 LOG2 JUMP JUMPDEST CALLER PUSH20 0xFFFFFFFFFFFFFFFFFFFFFFFFFFFFFFFFFFFFFFFF AND PUSH32 0x7E0B2EC000FBC04CC9CF069AF2934AE34F81E2A96A66FABD02003780C8360F3 PUSH1 0x0 PUSH1 0x40 MLOAD PUSH2 0x14D SWAP2 SWAP1 PUSH2 0x1CE JUMP JUMPDEST PUSH1 0x40 MLOAD DUP1 SWAP2 SUB SWAP1 LOG2 JUMP JUMPDEST PUSH32 0x4E487B7100000000000000000000000000000000000000000000000000000000 PUSH1 0x0 MSTORE PUSH1 0x21 PUSH1 0x4 MSTORE PUSH1 0x24 PUSH1 0x0 REVERT JUMPDEST PUSH1 0x3 DUP2 LT PUSH2 0x197 JUMPI PUSH2 0x196 PUSH2 0x157 JUMP JUMPDEST JUMPDEST POP JUMP JUMPDEST PUSH1 0x0 DUP2 SWAP1 POP PUSH2 0x1A8 DUP3 PUSH2 0x186 JUMP JUMPDEST SWAP2 SWAP1 POP JUMP JUMPDEST PUSH1 0x0 PUSH2 0x1B8 DUP3 PUSH2 0x19A JUMP JUMPDEST SWAP1 POP SWAP2 SWAP1 POP JUMP JUMPDEST PUSH2 0x1C8 DUP2 PUSH2 0x1AD JUMP JUMPDEST DUP3 MSTORE POP POP JUMP JUMPDEST PUSH1 0x0 PUSH1 0x20 DUP3 ADD SWAP1 POP PUSH2 0x1E3 PUSH1 0x0 DUP4 ADD DUP5 PUSH2 0x1BF JUMP JUMPDEST SWAP3 SWAP2 POP POP JUMP INVALID LOG2 PUSH5 0x6970667358 0x22 SLT KECCAK256 SWAP15 0xDE MLOAD 0xBF MULMOD DUP3 GT 0xD PUSH13 0xDCD464D38C08B444B9E9A32CCA CALLCODE 0xAC 0xDE PUSH32 0xC4C84DAF35D064736F6C63430008180033000000000000000000000000000000 "},"methodIdentifiers":{"logAdViewed()":"c471dd9e","logAffiliateLinkClaimed()":"59c4302b","logPartyAttended()":"2c0c028c"}}}}}